S0220000536D61727420686F6D6520596F757373656620736F6C696D616E2E7372656311
S11300000C942A000C943F000C943F000C943F0085
S11300100C943F000C943F000C943F000C943F0060
S11300200C943F000C943F000C943F000C943F0050
S11300300C943F000C943F000C943F000C943F0040
S11300400C943F000C943F000C943F000C943F0030
S11300500C943F0011241FBECFE5D8E0DEBFCDBF16
S113006010E0A0E6B0E0E4E0F5E002C005900D92F7
S1130070A63BB107D9F70E9443020C9480020C946A
S11300800000982F9770869586958695813021F18A
S113009030F08230F1F1833009F458C008956130B2
S11300A069F44BB321E030E0B90102C0660F771F59
S11300B09A95E2F7CB01842B8BBB08954BB321E0D7
S11300C030E0B90102C0660F771F9A95E2F7CB01C1
S11300D0809584238BBB0895613069F448B321E093
S11300E030E0B90102C0660F771F9A95E2F7CB01A1
S11300F0842B88BB089548B321E030E0B90102C0E5
S1130100660F771F9A95E2F7CB018095842388BB0D
S11301100895613069F445B321E030E0B90102C0CB
S1130120660F771F9A95E2F7CB01842B85BB089560
S113013045B321E030E0B90102C0660F771F9A95FC
S1130140E2F7CB018095842385BB0895613069F47F
S113015042B321E030E0B90102C0660F771F9A95DF
S1130160E2F7CB01842B82BB089542B321E030E057
S1130170B90102C0660F771F9A95E2F7CB0180950B
S1130180842382BB0895CF93DF93CDB7DEB7C054E9
S1130190D1090FB6F894DEBF0FBECDBF80E4E0E610
S11301A0F0E0DE01119601900D928A95E1F7FE01CF
S11301B0319680E041E050E0282F2770982F9695E3
S11301C096959695913009F130F09230C1F19330C3
S11301D009F44FC067C09081913059F49AB3BA01C1
S11301E002C0660F771F2A95E2F79B01292B2ABBD1
S11301F059C03AB3BA0102C0660F771F2A95E2F7D5
S1130200962F909593239ABB4DC09081913059F4C9
S113021097B3BA0102C0660F771F2A95E2F79B01D4
S1130220292B27BB3FC037B3BA0102C0660F771F23
S11302302A95E2F7962F9095932397BB33C090812C
S1130240913059F494B3BA0102C0660F771F2A950E
S1130250E2F79B01292B24BB25C034B3BA0102C0A9
S1130260660F771F2A95E2F7962F9095932394BBF8
S113027019C09081913059F491B3BA0102C0660F4C
S1130280771F2A95E2F79B01292B21BB0BC031B3C1
S1130290BA0102C0660F771F2A95E2F7962F909550
S11302A0932391BB8F5F3296803209F085CFC05C77
S11302B0DF4F0FB6F894DEBF0FBECDBFDF91CF91F5
S11302C00895CF93C82F8BB38F709C2F907F892B69
S11302D08BBB60E089E00E94410061E08BE00E94FA
S11302E041008FE891E00197F1F700C0000060E061
S11302F08BE00E9441008FE19EE40197F1F700C07A
S113030000008BB3282F2F7030E1C39FC00111244C
S1130310822B8BBB60E089E00E94410061E08BE0AE
S11303200E9441008FE891E00197F1F700C00000BE
S113033060E08BE00E944100CF91089560E08AE084
S11303400E9441002FEF89EF90E0215080409040BF
S1130350E1F700C0000083E30E9461018FE193E0B4
S11303600197F1F700C0000082E30E94610188E276
S11303700E94610187E00E94610186E00E946101A0
S113038088E10E9461018CE00E94610181E00E9489
S113039061018FE39FE10197F1F700C00000089528
S11303A0CF93C82F8BB38F709C2F907F892B8BBBDF
S11303B061E089E00E94410061E08BE00E9441001D
S11303C08FE891E00197F1F700C0000060E08BE056
S11303D00E9441008FE19EE40197F1F700C0000004
S11303E08BB3282F2F7030E1C302C0011124822B5C
S11303F08BBB61E089E00E94410061E08BE00E94D8
S113040041008FE891E00197F1F700C0000060E03F
S11304108BE00E944100CF9108950F931F93CF93D7
S1130420FC018081882359F08F01C0E00E94D00133
S1130430CF5FF801EC0FF11D80818111F7CFCF91CF
S11304401F910F91089581E00E9461010895CF9357
S1130450DF93EC01613019F0623051F011C0842F48
S11304608F7080680E946101CE010E940D0208C055
S1130470842F8F70806C0E946101CE010E940D0256
S1130480DF91CF9108950E94C30083E590E00E941C
S11304906D020E949E010E94230285E80E94610170
S11304A042E061E080EA90E00E94270242E062E0DC
S11304B08BEA90E00E9427020E947C02419721F47B
S11304C061E086E10E9441000E947C028297A1F7CC
S11304D060E086E10E944100EFCF8D3419F083354E
S11304E049F008958DB180658DB961E08CE00E947A
S11304F0410008956E9A0895779BFECF8FB10895B9
S1070500F894FFCF99
S113050401010101010101010101010101010101D3
S113051401010101010101010000000001010000C9
S113052401010101010101010101010101010101B3
S113053401010101010101010101010101010101A3
S113054457656C636F6D6520746F00796979736F97
S10905546C696D616E008C
S9030000FC
