S00E00004D41535445522E737265634A
S11300000C942A000C943F000C943F000C943F0085
S11300100C943F000C943F000C943F000C943F0060
S11300200C943F000C943F000C943F000C943F0050
S11300300C943F000C943F000C943F000C943F0040
S11300400C943F000C943F000C943F000C943F0030
S11300500C943F0011241FBECFE5D8E0DEBFCDBF16
S113006010E0A0E6B0E0E6EEF4E002C005900D92E8
S1130070A63EB107D9F70E9461010C9471020C9459
S11300800000982F9770869586958695813021F18A
S113009030F08230F1F1833009F458C008956130B2
S11300A069F44BB321E030E0B90102C0660F771F59
S11300B09A95E2F7CB01842B8BBB08954BB321E0D7
S11300C030E0B90102C0660F771F9A95E2F7CB01C1
S11300D0809584238BBB0895613069F448B321E093
S11300E030E0B90102C0660F771F9A95E2F7CB01A1
S11300F0842B88BB089548B321E030E0B90102C0E5
S1130100660F771F9A95E2F7CB018095842388BB0D
S11301100895613069F445B321E030E0B90102C0CB
S1130120660F771F9A95E2F7CB01842B85BB089560
S113013045B321E030E0B90102C0660F771F9A95FC
S1130140E2F7CB018095842385BB0895613069F47F
S113015042B321E030E0B90102C0660F771F9A95DF
S1130160E2F7CB01842B82BB089542B321E030E057
S1130170B90102C0660F771F9A95E2F7CB0180950B
S1130180842382BB0895CF93DF93CDB7DEB7C054E9
S1130190D1090FB6F894DEBF0FBECDBF80E4E0E610
S11301A0F0E0DE01119601900D928A95E1F7FE01CF
S11301B0319680E041E050E0282F2770982F9695E3
S11301C096959695913009F130F09230C1F19330C3
S11301D009F44FC067C09081913059F49AB3BA01C1
S11301E002C0660F771F2A95E2F79B01292B2ABBD1
S11301F059C03AB3BA0102C0660F771F2A95E2F7D5
S1130200962F909593239ABB4DC09081913059F4C9
S113021097B3BA0102C0660F771F2A95E2F79B01D4
S1130220292B27BB3FC037B3BA0102C0660F771F23
S11302302A95E2F7962F9095932397BB33C090812C
S1130240913059F494B3BA0102C0660F771F2A950E
S1130250E2F79B01292B24BB25C034B3BA0102C0A9
S1130260660F771F2A95E2F7962F9095932394BBF8
S113027019C09081913059F491B3BA0102C0660F4C
S1130280771F2A95E2F79B01292B21BB0BC031B3C1
S1130290BA0102C0660F771F2A95E2F7962F909550
S11302A0932391BB8F5F3296803209F085CFC05C77
S11302B0DF4F0FB6F894DEBF0FBECDBFDF91CF91F5
S11302C008950E94C3008DE40E94F60160E08CE072
S11302D00E94410060E875E280E090E00E940A021A
S11302E081E10E9405022FEF89E698E121508040C8
S11302F09040E1F700C0000082E20E9405022FEF67
S113030089E698E1215080409040E1F700C0000068
S11303100E943802813349F461E085E10E94410082
S113032080EA90E00E944002DBCF823349F460E02F
S113033085E10E94410087EA90E00E944002D0CF0C
S11303408333C9F461E088E00E94410061E089E000
S11303500E94410060E08AE00E94410061E086E181
S11303600E94410060E087E10E9441008FEA90E032
S11303700E944002B5CF8433C9F461E088E00E9452
S1130380410060E089E00E94410061E08AE00E944F
S1130390410060E086E10E94410061E087E10E9443
S11303A0410088EB90E00E9440029ACF8533C9F463
S11303B060E088E00E94410060E089E00E94410022
S11303C060E08AE00E94410060E086E10E94410012
S11303D060E087E10E94410087EC90E00E944002C7
S11303E07FCF80ED90E00E9440027ACF8D3419F0E7
S11303F0833549F008958DB180658DB961E08CE055
S11304000E94410008956E9A08958FB9779BFECF9C
S11304108FB108952AB128612AB920B5266820BD74
S1130420DC01CB01880F991FAA1FBB1F880F991FDE
S1130430AA1FBB1F9C01AD01220F331F441F551F70
S1130440220F331F441F551F60E074E284EF90E0D5
S11304500E944F028FEF820F89B9DA01C901019717
S1130460A109B109892F9A2FAB2FBB2780BD08950D
S11304705F9BFECF8CB108958CB95D9BFECF089530
S1130480CF93DF93EC018881882331F021960E9479
S11304903C0289918111FBCFDF91CF910895A1E2B4
S11304A01A2EAA1BBB1BFD010DC0AA1FBB1FEE1FEA
S11304B0FF1FA217B307E407F50720F0A21BB30B35
S11304C0E40BF50B661F771F881F991F1A9469F7B1
S11304D060957095809590959B01AC01BD01CF010D
S10904E00895F894FFCF1B
S11304E601010101010101010101010101010101F2
S11304F601010101010101010101010100000101E4
S113050601010101010101010101010101010101D1
S113051601010101010101010101010101010101C1
S11305264C45445F4F4E004C45445F4F464600469B
S1130536414E5F4D4F444500524550454C4C454E47
S1130546545F4D4F4445004F46465F4D4F4445006A
S113055653656C6563742070726F706572206F707A
S109056674696F6E0000D1
S9030000FC
